{
  "contractName": "ContainerCompany",
  "abi": [
    {
      "anonymous": false,
      "inputs": [
        {
          "indexed": false,
          "internalType": "uint256",
          "name": "containerId",
          "type": "uint256"
        }
      ],
      "name": "ContainerDelivered",
      "type": "event"
    },
    {
      "anonymous": false,
      "inputs": [
        {
          "indexed": false,
          "internalType": "uint256",
          "name": "containerId",
          "type": "uint256"
        }
      ],
      "name": "ContainerShipped",
      "type": "event"
    },
    {
      "anonymous": false,
      "inputs": [
        {
          "indexed": false,
          "internalType": "uint256",
          "name": "containerId",
          "type": "uint256"
        }
      ],
      "name": "NewContainer",
      "type": "event"
    },
    {
      "anonymous": false,
      "inputs": [
        {
          "indexed": true,
          "internalType": "address",
          "name": "previousOwner",
          "type": "address"
        },
        {
          "indexed": true,
          "internalType": "address",
          "name": "newOwner",
          "type": "address"
        }
      ],
      "name": "OwnershipTransferred",
      "type": "event"
    },
    {
      "inputs": [],
      "name": "owner",
      "outputs": [
        {
          "internalType": "address",
          "name": "",
          "type": "address"
        }
      ],
      "stateMutability": "view",
      "type": "function",
      "constant": true
    },
    {
      "inputs": [],
      "name": "renounceOwnership",
      "outputs": [],
      "stateMutability": "nonpayable",
      "type": "function"
    },
    {
      "inputs": [
        {
          "internalType": "address",
          "name": "newOwner",
          "type": "address"
        }
      ],
      "name": "transferOwnership",
      "outputs": [],
      "stateMutability": "nonpayable",
      "type": "function"
    },
    {
      "inputs": [
        {
          "internalType": "enum ContainerFactory.ShipmentType",
          "name": "shipmentType",
          "type": "uint8"
        },
        {
          "internalType": "uint8",
          "name": "country",
          "type": "uint8"
        },
        {
          "internalType": "address",
          "name": "receiver",
          "type": "address"
        },
        {
          "internalType": "string",
          "name": "locName",
          "type": "string"
        }
      ],
      "name": "createContainer",
      "outputs": [
        {
          "internalType": "uint256",
          "name": "_containerId",
          "type": "uint256"
        },
        {
          "internalType": "enum ContainerFactory.ContainerStatus",
          "name": "_status",
          "type": "uint8"
        }
      ],
      "stateMutability": "nonpayable",
      "type": "function"
    },
    {
      "inputs": [
        {
          "internalType": "uint256",
          "name": "countryDest",
          "type": "uint256"
        },
        {
          "internalType": "address",
          "name": "courierAddr",
          "type": "address"
        },
        {
          "internalType": "uint256",
          "name": "courierItemId",
          "type": "uint256"
        }
      ],
      "name": "queueItem",
      "outputs": [],
      "stateMutability": "nonpayable",
      "type": "function"
    },
    {
      "inputs": [
        {
          "internalType": "uint256",
          "name": "containerId",
          "type": "uint256"
        },
        {
          "internalType": "string",
          "name": "status",
          "type": "string"
        },
        {
          "internalType": "string",
          "name": "desc",
          "type": "string"
        },
        {
          "internalType": "address",
          "name": "operator",
          "type": "address"
        },
        {
          "internalType": "string",
          "name": "locName",
          "type": "string"
        }
      ],
      "name": "addContainerCheckpoint",
      "outputs": [
        {
          "internalType": "bool",
          "name": "",
          "type": "bool"
        }
      ],
      "stateMutability": "nonpayable",
      "type": "function"
    },
    {
      "inputs": [
        {
          "internalType": "uint256",
          "name": "containerId",
          "type": "uint256"
        },
        {
          "internalType": "string",
          "name": "checkpointStatus",
          "type": "string"
        },
        {
          "internalType": "string",
          "name": "checkpointDesc",
          "type": "string"
        },
        {
          "internalType": "string",
          "name": "checkpointLocName",
          "type": "string"
        }
      ],
      "name": "initContainerShipment",
      "outputs": [
        {
          "internalType": "uint256",
          "name": "_containerId",
          "type": "uint256"
        },
        {
          "internalType": "enum ContainerFactory.ContainerStatus",
          "name": "_status",
          "type": "uint8"
        }
      ],
      "stateMutability": "nonpayable",
      "type": "function"
    },
    {
      "inputs": [
        {
          "internalType": "uint256",
          "name": "containerId",
          "type": "uint256"
        },
        {
          "internalType": "string",
          "name": "checkpointStatus",
          "type": "string"
        },
        {
          "internalType": "string",
          "name": "checkpointDesc",
          "type": "string"
        },
        {
          "internalType": "string",
          "name": "checkpointLocName",
          "type": "string"
        }
      ],
      "name": "completeContainerShipment",
      "outputs": [
        {
          "internalType": "uint256",
          "name": "_containerId",
          "type": "uint256"
        },
        {
          "internalType": "enum ContainerFactory.ContainerStatus",
          "name": "_status",
          "type": "uint8"
        }
      ],
      "stateMutability": "nonpayable",
      "type": "function"
    },
    {
      "inputs": [
        {
          "internalType": "uint256",
          "name": "containerId",
          "type": "uint256"
        }
      ],
      "name": "setContainerAsMissing",
      "outputs": [
        {
          "internalType": "uint256",
          "name": "_containerId",
          "type": "uint256"
        },
        {
          "internalType": "enum ContainerFactory.ContainerStatus",
          "name": "_status",
          "type": "uint8"
        }
      ],
      "stateMutability": "nonpayable",
      "type": "function"
    },
    {
      "inputs": [],
      "name": "getTotalContainers",
      "outputs": [
        {
          "internalType": "uint256",
          "name": "",
          "type": "uint256"
        }
      ],
      "stateMutability": "view",
      "type": "function",
      "constant": true
    },
    {
      "inputs": [
        {
          "internalType": "uint256",
          "name": "containerId",
          "type": "uint256"
        }
      ],
      "name": "getContainerOf",
      "outputs": [
        {
          "components": [
            {
              "internalType": "uint256",
              "name": "id",
              "type": "uint256"
            },
            {
              "internalType": "enum ContainerFactory.ShipmentType",
              "name": "shipmentType",
              "type": "uint8"
            },
            {
              "internalType": "uint8",
              "name": "countryDestination",
              "type": "uint8"
            },
            {
              "components": [
                {
                  "internalType": "address",
                  "name": "receiver",
                  "type": "address"
                },
                {
                  "components": [
                    {
                      "internalType": "string",
                      "name": "name",
                      "type": "string"
                    }
                  ],
                  "internalType": "struct ContainerFactory.Location",
                  "name": "location",
                  "type": "tuple"
                }
              ],
              "internalType": "struct ContainerFactory.Destination",
              "name": "destination",
              "type": "tuple"
            },
            {
              "internalType": "enum ContainerFactory.ContainerStatus",
              "name": "status",
              "type": "uint8"
            },
            {
              "internalType": "uint256",
              "name": "dateCreated",
              "type": "uint256"
            },
            {
              "internalType": "uint256",
              "name": "dateCompleted",
              "type": "uint256"
            }
          ],
          "internalType": "struct ContainerFactory.Container",
          "name": "",
          "type": "tuple"
        }
      ],
      "stateMutability": "view",
      "type": "function",
      "constant": true
    },
    {
      "inputs": [
        {
          "internalType": "uint256",
          "name": "containerId",
          "type": "uint256"
        }
      ],
      "name": "getStatusOf",
      "outputs": [
        {
          "internalType": "enum ContainerFactory.ContainerStatus",
          "name": "",
          "type": "uint8"
        }
      ],
      "stateMutability": "view",
      "type": "function",
      "constant": true
    },
    {
      "inputs": [
        {
          "internalType": "uint256",
          "name": "containerId",
          "type": "uint256"
        }
      ],
      "name": "getItemsOf",
      "outputs": [
        {
          "components": [
            {
              "internalType": "address",
              "name": "courierAddress",
              "type": "address"
            },
            {
              "internalType": "uint256",
              "name": "courierItemId",
              "type": "uint256"
            },
            {
              "internalType": "uint256",
              "name": "dateCreated",
              "type": "uint256"
            }
          ],
          "internalType": "struct ContainerFactory.ContainerItem[]",
          "name": "",
          "type": "tuple[]"
        }
      ],
      "stateMutability": "view",
      "type": "function",
      "constant": true
    },
    {
      "inputs": [
        {
          "internalType": "uint256",
          "name": "containerId",
          "type": "uint256"
        }
      ],
      "name": "getReceiverOf",
      "outputs": [
        {
          "internalType": "address",
          "name": "",
          "type": "address"
        }
      ],
      "stateMutability": "view",
      "type": "function",
      "constant": true
    },
    {
      "inputs": [
        {
          "internalType": "uint256",
          "name": "containerId",
          "type": "uint256"
        }
      ],
      "name": "getCheckpointsOf",
      "outputs": [
        {
          "components": [
            {
              "internalType": "string",
              "name": "status",
              "type": "string"
            },
            {
              "internalType": "string",
              "name": "desc",
              "type": "string"
            },
            {
              "internalType": "address",
              "name": "operator",
              "type": "address"
            },
            {
              "components": [
                {
                  "internalType": "string",
                  "name": "name",
                  "type": "string"
                }
              ],
              "internalType": "struct ContainerFactory.Location",
              "name": "location",
              "type": "tuple"
            },
            {
              "internalType": "uint256",
              "name": "timeStamp",
              "type": "uint256"
            }
          ],
          "internalType": "struct ContainerFactory.Checkpoint[]",
          "name": "",
          "type": "tuple[]"
        }
      ],
      "stateMutability": "view",
      "type": "function",
      "constant": true
    }
  ],
  "bytecode": "0x6080604052600060025534801561001557600080fd5b506100253361002a60201b60201c565b6100ee565b60008060009054906101000a900473ffffffffffffffffffffffffffffffffffffffff169050816000806101000a81548173ffffffffffffffffffffffffffffffffffffffff021916908373ffffffffffffffffffffffffffffffffffffffff1602179055508173ffffffffffffffffffffffffffffffffffffffff168173ffffffffffffffffffffffffffffffffffffffff167f8be0079c531659141344cd1fd0a4f28419497f9722a3daafe3b4186f6b6457e060405160405180910390a35050565b612c1280620000fe6000396000f3fe608060405234801561001057600080fd5b50600436106100f55760003560e01c8063a68488bc11610097578063d3e1993311610066578063d3e19933146102ae578063e65e44ab146102df578063f2fde38b14610310578063fc321e241461032c576100f5565b8063a68488bc146101ed578063a879c79d1461021d578063aeb356311461024e578063b32c7a981461027e576100f5565b80637c0ced20116100d35780637c0ced20146101645780638da5cb5b146101825780639235b670146101a05780639b415865146101bc576100f5565b806302be81e7146100fa578063715018a61461012a5780637920a30614610134575b600080fd5b610114600480360381019061010f9190611e65565b61035c565b60405161012191906124bc565b60405180910390f35b61013261064b565b005b61014e60048036038101906101499190611e65565b6106cc565b60405161015b91906124de565b60405180910390f35b61016c6107fb565b6040516101799190612618565b60405180910390f35b61018a610805565b60405161019791906124a1565b60405180910390f35b6101ba60048036038101906101b59190611e8e565b61082e565b005b6101d660048036038101906101d19190611f9c565b610903565b6040516101e4929190612633565b60405180910390f35b61020760048036038101906102029190611e65565b610b47565b604051610214919061251b565b60405180910390f35b61023760048036038101906102329190611f9c565b610bc7565b604051610245929190612633565b60405180910390f35b61026860048036038101906102639190611e65565b610dea565b60405161027591906125f6565b60405180910390f35b61029860048036038101906102939190611edd565b6110c3565b6040516102a59190612500565b60405180910390f35b6102c860048036038101906102c39190611e65565b61126d565b6040516102d6929190612633565b60405180910390f35b6102f960048036038101906102f49190611dea565b611444565b604051610307929190612633565b60405180910390f35b61032a60048036038101906103259190611dc1565b611659565b005b61034660048036038101906103419190611e65565b61174a565b60405161035391906124a1565b60405180910390f35b60608160008111801561037157506002548111155b6103b0576040517f08c379a00000000000000000000000000000000000000000000000000000000081526004016103a790612596565b60405180910390fd5b60056000848152602001908152602001600020805480602002602001604051908101604052809291908181526020016000905b8282101561063f57838290600052602060002090600502016040518060a001604052908160008201805461041690612832565b80601f016020809104026020016040519081016040528092919081815260200182805461044290612832565b801561048f5780601f106104645761010080835404028352916020019161048f565b820191906000526020600020905b81548152906001019060200180831161047257829003601f168201915b505050505081526020016001820180546104a890612832565b80601f01602080910402602001604051908101604052809291908181526020018280546104d490612832565b80156105215780601f106104f657610100808354040283529160200191610521565b820191906000526020600020905b81548152906001019060200180831161050457829003601f168201915b505050505081526020016002820160009054906101000a900473ffffffffffffffffffffffffffffffffffffffff1673ffffffffffffffffffffffffffffffffffffffff1673ffffffffffffffffffffffffffffffffffffffff168152602001600382016040518060200160405290816000820180546105a090612832565b80601f01602080910402602001604051908101604052809291908181526020018280546105cc90612832565b80156106195780601f106105ee57610100808354040283529160200191610619565b820191906000526020600020905b8154815290600101906020018083116105fc57829003601f168201915b5050505050815250508152602001600482015481525050815260200190600101906103e3565b50505050915050919050565b3373ffffffffffffffffffffffffffffffffffffffff1661066a610805565b73ffffffffffffffffffffffffffffffffffffffff16146106c0576040517f08c379a00000000000000000000000000000000000000000000000000000000081526004016106b7906125d6565b60405180910390fd5b6106ca60006117e0565b565b6060816000811180156106e157506002548111155b610720576040517f08c379a000000000000000000000000000000000000000000000000000000000815260040161071790612596565b60405180910390fd5b60046000848152602001908152602001600020805480602002602001604051908101604052809291908181526020016000905b828210156107ef57838290600052602060002090600302016040518060600160405290816000820160009054906101000a900473ffffffffffffffffffffffffffffffffffffffff1673ffffffffffffffffffffffffffffffffffffffff1673ffffffffffffffffffffffffffffffffffffffff1681526020016001820154815260200160028201548152505081526020019060010190610753565b50505050915050919050565b6000600254905090565b60008060009054906101000a900473ffffffffffffffffffffffffffffffffffffffff16905090565b600060405180606001604052808473ffffffffffffffffffffffffffffffffffffffff1681526020018381526020014281525090506001600085815260200190815260200160002081908060018154018082558091505060019003906000526020600020906003020160009091909190915060008201518160000160006101000a81548173ffffffffffffffffffffffffffffffffffffffff021916908373ffffffffffffffffffffffffffffffffffffffff1602179055506020820151816001015560408201518160020155505050505050565b6000808560008111801561091957506002548111155b610958576040517f08c379a000000000000000000000000000000000000000000000000000000000815260040161094f90612596565b60405180910390fd5b60006003600089815260200190815260200160002090508060020160000160009054906101000a900473ffffffffffffffffffffffffffffffffffffffff1673ffffffffffffffffffffffffffffffffffffffff163373ffffffffffffffffffffffffffffffffffffffff1614610a04576040517f08c379a00000000000000000000000000000000000000000000000000000000081526004016109fb90612536565b60405180910390fd5b60026003811115610a3e577f4e487b7100000000000000000000000000000000000000000000000000000000600052602160045260246000fd5b8160040160009054906101000a900460ff166003811115610a88577f4e487b7100000000000000000000000000000000000000000000000000000000600052602160045260246000fd5b1415610ac9576040517f08c379a0000000000000000000000000000000000000000000000000000000008152600401610ac0906125b6565b60405180910390fd5b610ad688888833896110c3565b50610ae6816000015460026118a4565b7ffd5ab16ce177c506b5ef58adb2e2dbdd390aa6e59631295a662a4ee80f7e263a8160000154604051610b199190612618565b60405180910390a180600001548160040160009054906101000a900460ff1693509350505094509492505050565b600081600081118015610b5c57506002548111155b610b9b576040517f08c379a0000000000000000000000000000000000000000000000000000000008152600401610b9290612596565b60405180910390fd5b6003600084815260200190815260200160002060040160009054906101000a900460ff16915050919050565b60008085600081118015610bdd57506002548111155b610c1c576040517f08c379a0000000000000000000000000000000000000000000000000000000008152600401610c1390612596565b60405180910390fd5b3373ffffffffffffffffffffffffffffffffffffffff16610c3b610805565b73ffffffffffffffffffffffffffffffffffffffff1614610c91576040517f08c379a0000000000000000000000000000000000000000000000000000000008152600401610c88906125d6565b60405180910390fd5b600060036000898152602001908152602001600020905060006003811115610ce2577f4e487b7100000000000000000000000000000000000000000000000000000000600052602160045260246000fd5b8160040160009054906101000a900460ff166003811115610d2c577f4e487b7100000000000000000000000000000000000000000000000000000000600052602160045260246000fd5b14610d6c576040517f08c379a0000000000000000000000000000000000000000000000000000000008152600401610d6390612576565b60405180910390fd5b610d7988888830896110c3565b50610d89816000015460016118a4565b7f2f1d6116189a14477855ff74caaa2379d8fa6f42199ffa62ded5ae9d2686289e8160000154604051610dbc9190612618565b60405180910390a180600001548160040160009054906101000a900460ff1693509350505094509492505050565b610df2611af1565b81600081118015610e0557506002548111155b610e44576040517f08c379a0000000000000000000000000000000000000000000000000000000008152600401610e3b90612596565b60405180910390fd5b600360008481526020019081526020016000206040518060e0016040529081600082015481526020016001820160009054906101000a900460ff166001811115610eb7577f4e487b7100000000000000000000000000000000000000000000000000000000600052602160045260246000fd5b6001811115610eef577f4e487b7100000000000000000000000000000000000000000000000000000000600052602160045260246000fd5b81526020016001820160019054906101000a900460ff1660ff1660ff168152602001600282016040518060400160405290816000820160009054906101000a900473ffffffffffffffffffffffffffffffffffffffff1673ffffffffffffffffffffffffffffffffffffffff1673ffffffffffffffffffffffffffffffffffffffff16815260200160018201604051806020016040529081600082018054610f9690612832565b80601f0160208091040260200160405190810160405280929190818152602001828054610fc290612832565b801561100f5780601f10610fe45761010080835404028352916020019161100f565b820191906000526020600020905b815481529060010190602001808311610ff257829003601f168201915b5050505050815250508152505081526020016004820160009054906101000a900460ff16600381111561106b577f4e487b7100000000000000000000000000000000000000000000000000000000600052602160045260246000fd5b60038111156110a3577f4e487b7100000000000000000000000000000000000000000000000000000000600052602160045260246000fd5b815260200160058201548152602001600682015481525050915050919050565b6000856000811180156110d857506002548111155b611117576040517f08c379a000000000000000000000000000000000000000000000000000000000815260040161110e90612596565b60405180910390fd5b6000604051806020016040528085815250905060006040518060a001604052808981526020018881526020018773ffffffffffffffffffffffffffffffffffffffff168152602001838152602001428152509050600560008a815260200190815260200160002081908060018154018082558091505060019003906000526020600020906005020160009091909190915060008201518160000190805190602001906111c4929190611ba7565b5060208201518160010190805190602001906111e1929190611ba7565b5060408201518160020160006101000a81548173ffffffffffffffffffffffffffffffffffffffff021916908373ffffffffffffffffffffffffffffffffffffffff160217905550606082015181600301600082015181600001908051906020019061124e929190611ba7565b5050506080820151816004015550506001935050505095945050505050565b6000808260008111801561128357506002548111155b6112c2576040517f08c379a00000000000000000000000000000000000000000000000000000000081526004016112b990612596565b60405180910390fd5b3373ffffffffffffffffffffffffffffffffffffffff166112e1610805565b73ffffffffffffffffffffffffffffffffffffffff1614611337576040517f08c379a000000000000000000000000000000000000000000000000000000000815260040161132e906125d6565b60405180910390fd5b600060036000868152602001908152602001600020905060026003811115611388577f4e487b7100000000000000000000000000000000000000000000000000000000600052602160045260246000fd5b8160040160009054906101000a900460ff1660038111156113d2577f4e487b7100000000000000000000000000000000000000000000000000000000600052602160045260246000fd5b1415611413576040517f08c379a000000000000000000000000000000000000000000000000000000000815260040161140a906125b6565b60405180910390fd5b611422816000015460036118a4565b80600001548160040160009054906101000a900460ff16935093505050915091565b6000803373ffffffffffffffffffffffffffffffffffffffff16611466610805565b73ffffffffffffffffffffffffffffffffffffffff16146114bc576040517f08c379a00000000000000000000000000000000000000000000000000000000081526004016114b3906125d6565b60405180910390fd5b600260008154809291906114cf90612895565b9190505550600060036000600254815260200190815260200160002090506002548160000181905550858160010160016101000a81548160ff021916908360ff160217905550848160020160000160006101000a81548173ffffffffffffffffffffffffffffffffffffffff021916908373ffffffffffffffffffffffffffffffffffffffff16021790555060405180602001604052808581525081600201600101600082015181600001908051906020019061158d929190611ba7565b50905050428160050181905550868160010160006101000a81548160ff021916908360018111156115e7577f4e487b7100000000000000000000000000000000000000000000000000000000600052602160045260246000fd5b02179055506115f98160000154611965565b7fd41c16c766a055516fa76d4c9b87e5f059c8c6486b9055d77f6ab7240f8b4848816000015460405161162c9190612618565b60405180910390a180600001548160040160009054906101000a900460ff16925092505094509492505050565b3373ffffffffffffffffffffffffffffffffffffffff16611678610805565b73ffffffffffffffffffffffffffffffffffffffff16146116ce576040517f08c379a00000000000000000000000000000000000000000000000000000000081526004016116c5906125d6565b60405180910390fd5b600073ffffffffffffffffffffffffffffffffffffffff168173ffffffffffffffffffffffffffffffffffffffff16141561173e576040517f08c379a000000000000000000000000000000000000000000000000000000000815260040161173590612556565b60405180910390fd5b611747816117e0565b50565b60008160008111801561175f57506002548111155b61179e576040517f08c379a000000000000000000000000000000000000000000000000000000000815260040161179590612596565b60405180910390fd5b6003600084815260200190815260200160002060020160000160009054906101000a900473ffffffffffffffffffffffffffffffffffffffff16915050919050565b60008060009054906101000a900473ffffffffffffffffffffffffffffffffffffffff169050816000806101000a81548173ffffffffffffffffffffffffffffffffffffffff021916908373ffffffffffffffffffffffffffffffffffffffff1602179055508173ffffffffffffffffffffffffffffffffffffffff168173ffffffffffffffffffffffffffffffffffffffff167f8be0079c531659141344cd1fd0a4f28419497f9722a3daafe3b4186f6b6457e060405160405180910390a35050565b816000811180156118b757506002548111155b6118f6576040517f08c379a00000000000000000000000000000000000000000000000000000000081526004016118ed90612596565b60405180910390fd5b6000600360008581526020019081526020016000209050828160040160006101000a81548160ff0219169083600381111561195a577f4e487b7100000000000000000000000000000000000000000000000000000000600052602160045260246000fd5b021790555050505050565b60006003600083815260200190815260200160002060010160019054906101000a900460ff1690506000600160008360ff168152602001908152602001600020905060005b8180549050811015611ac95760046000858152602001908152602001600020828281548110611a02577f4e487b7100000000000000000000000000000000000000000000000000000000600052603260045260246000fd5b906000526020600020906003020190806001815401808255809150506001900390600052602060002090600302016000909190919091506000820160009054906101000a900473ffffffffffffffffffffffffffffffffffffffff168160000160006101000a81548173ffffffffffffffffffffffffffffffffffffffff021916908373ffffffffffffffffffffffffffffffffffffffff160217905550600182015481600101556002820154816002015550508080611ac190612895565b9150506119aa565b50600160008360ff1681526020019081526020016000206000611aec9190611c2d565b505050565b6040518060e001604052806000815260200160006001811115611b3d577f4e487b7100000000000000000000000000000000000000000000000000000000600052602160045260246000fd5b8152602001600060ff168152602001611b54611c51565b815260200160006003811115611b93577f4e487b7100000000000000000000000000000000000000000000000000000000600052602160045260246000fd5b815260200160008152602001600081525090565b828054611bb390612832565b90600052602060002090601f016020900481019282611bd55760008555611c1c565b82601f10611bee57805160ff1916838001178555611c1c565b82800160010185558215611c1c579182015b82811115611c1b578251825591602001919060010190611c00565b5b509050611c299190611c87565b5090565b5080546000825560030290600052602060002090810190611c4e9190611ca4565b50565b6040518060400160405280600073ffffffffffffffffffffffffffffffffffffffff168152602001611c81611cf2565b81525090565b5b80821115611ca0576000816000905550600101611c88565b5090565b5b80821115611cee57600080820160006101000a81549073ffffffffffffffffffffffffffffffffffffffff02191690556001820160009055600282016000905550600301611ca5565b5090565b6040518060200160405280606081525090565b6000611d18611d1384612681565b61265c565b905082815260208101848484011115611d3057600080fd5b611d3b8482856127f0565b509392505050565b600081359050611d5281612b87565b92915050565b600081359050611d6781612b9e565b92915050565b600082601f830112611d7e57600080fd5b8135611d8e848260208601611d05565b91505092915050565b600081359050611da681612bae565b92915050565b600081359050611dbb81612bc5565b92915050565b600060208284031215611dd357600080fd5b6000611de184828501611d43565b91505092915050565b60008060008060808587031215611e0057600080fd5b6000611e0e87828801611d58565b9450506020611e1f87828801611dac565b9350506040611e3087828801611d43565b925050606085013567ffffffffffffffff811115611e4d57600080fd5b611e5987828801611d6d565b91505092959194509250565b600060208284031215611e7757600080fd5b6000611e8584828501611d97565b91505092915050565b600080600060608486031215611ea357600080fd5b6000611eb186828701611d97565b9350506020611ec286828701611d43565b9250506040611ed386828701611d97565b9150509250925092565b600080600080600060a08688031215611ef557600080fd5b6000611f0388828901611d97565b955050602086013567ffffffffffffffff811115611f2057600080fd5b611f2c88828901611d6d565b945050604086013567ffffffffffffffff811115611f4957600080fd5b611f5588828901611d6d565b9350506060611f6688828901611d43565b925050608086013567ffffffffffffffff811115611f8357600080fd5b611f8f88828901611d6d565b9150509295509295909350565b60008060008060808587031215611fb257600080fd5b6000611fc087828801611d97565b945050602085013567ffffffffffffffff811115611fdd57600080fd5b611fe987828801611d6d565b935050604085013567ffffffffffffffff81111561200657600080fd5b61201287828801611d6d565b925050606085013567ffffffffffffffff81111561202f57600080fd5b61203b87828801611d6d565b91505092959194509250565b600061205383836122ab565b905092915050565b6000612067838361232f565b60608301905092915050565b61207c81612751565b82525050565b61208b81612751565b82525050565b600061209c826126d2565b6120a6818561270d565b9350836020820285016120b8856126b2565b8060005b858110156120f457848403895281516120d58582612047565b94506120e0836126f3565b925060208a019950506001810190506120bc565b50829750879550505050505092915050565b6000612111826126dd565b61211b818561271e565b9350612126836126c2565b8060005b8381101561215757815161213e888261205b565b975061214983612700565b92505060018101905061212a565b5085935050505092915050565b61216d81612763565b82525050565b61217c816127cc565b82525050565b61218b816127cc565b82525050565b61219a816127de565b82525050565b60006121ab826126e8565b6121b5818561272f565b93506121c58185602086016127ff565b6121ce8161299a565b840191505092915050565b60006121e6603e83612740565b91506121f1826129ab565b604082019050919050565b6000612209602683612740565b9150612214826129fa565b604082019050919050565b600061222c602883612740565b915061223782612a49565b604082019050919050565b600061224f602483612740565b915061225a82612a98565b604082019050919050565b6000612272603483612740565b915061227d82612ae7565b604082019050919050565b6000612295602083612740565b91506122a082612b36565b602082019050919050565b600060a08301600083015184820360008601526122c882826121a0565b915050602083015184820360208601526122e282826121a0565b91505060408301516122f76040860182612073565b506060830151848203606086015261230f828261244a565b91505060808301516123246080860182612474565b508091505092915050565b6060820160008201516123456000850182612073565b5060208201516123586020850182612474565b50604082015161236b6040850182612474565b50505050565b600060e0830160008301516123896000860182612474565b50602083015161239c6020860182612191565b5060408301516123af6040860182612492565b50606083015184820360608601526123c7828261240d565b91505060808301516123dc6080860182612173565b5060a08301516123ef60a0860182612474565b5060c083015161240260c0860182612474565b508091505092915050565b60006040830160008301516124256000860182612073565b506020830151848203602086015261243d828261244a565b9150508091505092915050565b6000602083016000830151848203600086015261246782826121a0565b9150508091505092915050565b61247d816127b5565b82525050565b61248c816127b5565b82525050565b61249b816127bf565b82525050565b60006020820190506124b66000830184612082565b92915050565b600060208201905081810360008301526124d68184612091565b905092915050565b600060208201905081810360008301526124f88184612106565b905092915050565b60006020820190506125156000830184612164565b92915050565b60006020820190506125306000830184612182565b92915050565b6000602082019050818103600083015261254f816121d9565b9050919050565b6000602082019050818103600083015261256f816121fc565b9050919050565b6000602082019050818103600083015261258f8161221f565b9050919050565b600060208201905081810360008301526125af81612242565b9050919050565b600060208201905081810360008301526125cf81612265565b9050919050565b600060208201905081810360008301526125ef81612288565b9050919050565b600060208201905081810360008301526126108184612371565b905092915050565b600060208201905061262d6000830184612483565b92915050565b60006040820190506126486000830185612483565b6126556020830184612182565b9392505050565b6000612666612677565b90506126728282612864565b919050565b6000604051905090565b600067ffffffffffffffff82111561269c5761269b61296b565b5b6126a58261299a565b9050602081019050919050565b6000819050602082019050919050565b6000819050602082019050919050565b600081519050919050565b600081519050919050565b600081519050919050565b6000602082019050919050565b6000602082019050919050565b600082825260208201905092915050565b600082825260208201905092915050565b600082825260208201905092915050565b600082825260208201905092915050565b600061275c82612795565b9050919050565b60008115159050919050565b600081905061277d82612b5f565b919050565b600081905061279082612b73565b919050565b600073ffffffffffffffffffffffffffffffffffffffff82169050919050565b6000819050919050565b600060ff82169050919050565b60006127d78261276f565b9050919050565b60006127e982612782565b9050919050565b82818337600083830152505050565b60005b8381101561281d578082015181840152602081019050612802565b8381111561282c576000848401525b50505050565b6000600282049050600182168061284a57607f821691505b6020821081141561285e5761285d61293c565b5b50919050565b61286d8261299a565b810181811067ffffffffffffffff8211171561288c5761288b61296b565b5b80604052505050565b60006128a0826127b5565b91507fffffffffffffffffffffffffffffffffffffffffffffffffffffffffffffffff8214156128d3576128d26128de565b5b600182019050919050565b7f4e487b7100000000000000000000000000000000000000000000000000000000600052601160045260246000fd5b7f4e487b7100000000000000000000000000000000000000000000000000000000600052602160045260246000fd5b7f4e487b7100000000000000000000000000000000000000000000000000000000600052602260045260246000fd5b7f4e487b7100000000000000000000000000000000000000000000000000000000600052604160045260246000fd5b6000601f19601f8301169050919050565b7f4f6e6c7920746865207265636569766572206f66207468697320636f6e74616960008201527f6e65722063616e20636f6d706c6574652074686520736869706d656e74210000602082015250565b7f4f776e61626c653a206e6577206f776e657220697320746865207a65726f206160008201527f6464726573730000000000000000000000000000000000000000000000000000602082015250565b7f5468697320636f6e7461696e65722068617320616c7265616479206265656e2060008201527f7368697070656421000000000000000000000000000000000000000000000000602082015250565b7f436f6e7461696e6572206f66207468617420494420646f6573206e6f7420657860008201527f6973742100000000000000000000000000000000000000000000000000000000602082015250565b7f54686520736869706d656e74206f66207468697320636f6e7461696e6572206960008201527f7320616c726561647920636f6d706c6574656421000000000000000000000000602082015250565b7f4f776e61626c653a2063616c6c6572206973206e6f7420746865206f776e6572600082015250565b60048110612b7057612b6f61290d565b5b50565b60028110612b8457612b8361290d565b5b50565b612b9081612751565b8114612b9b57600080fd5b50565b60028110612bab57600080fd5b50565b612bb7816127b5565b8114612bc257600080fd5b50565b612bce816127bf565b8114612bd957600080fd5b5056fea2646970667358221220d1341270f7836d9663698b814217d711b6f4551179d693cc2295476d30a5eb8264736f6c63430008020033",
  "immutableReferences": {},
  "source": "// SPDX-License-Identifier: MIT\r\npragma solidity >=0.7.0;\r\n\r\nimport \"./Ownable.sol\";\r\n\r\nabstract contract ContainerFactory {\r\n    event NewContainer(uint256 containerId);\r\n    event ContainerShipped(uint256 containerId);\r\n    event ContainerDelivered(uint256 containerId);\r\n\r\n    enum ContainerStatus {\r\n        Processing,\r\n        Ongoing,\r\n        Completed,\r\n        LostInTransit\r\n    }\r\n\r\n    enum ShipmentType {\r\n        Domestic,\r\n        International\r\n    }\r\n\r\n    struct ContainerItem {\r\n        address courierAddress;\r\n        uint256 courierItemId;\r\n        uint256 dateCreated;\r\n    }\r\n\r\n    struct Location {\r\n        string name;\r\n        // uint256 long;\r\n        // uint256 lat;\r\n    }\r\n\r\n    struct Checkpoint {\r\n        string status;\r\n        string desc;\r\n        address operator;\r\n        Location location;\r\n        uint256 timeStamp;\r\n    }\r\n\r\n    struct Destination {\r\n        address receiver;\r\n        Location location;\r\n    }\r\n\r\n    struct Container {\r\n        uint256 id;\r\n        ShipmentType shipmentType;\r\n        uint8 countryDestination;\r\n        Destination destination;\r\n        ContainerStatus status;\r\n        uint256 dateCreated;\r\n        uint256 dateCompleted;\r\n    }\r\n}\r\n\r\ncontract ContainerCompany is Ownable, ContainerFactory {\r\n    /// @dev List of Item which are yet to be inserted into a Container, according to their country code\r\n    /// @dev All Item object forwarded to this contract will be inserted here.\r\n    mapping(uint256 => ContainerItem[]) private _countryToItemQueues;\r\n\r\n    uint256 private _totalContainers = 0;\r\n\r\n    /// @dev Container ID >= 1\r\n    mapping(uint256 => Container) private _container;\r\n\r\n    /// @dev List of items inserted into a container\r\n    mapping(uint256 => ContainerItem[]) private _containerToItems;\r\n\r\n    /// @dev Container checkpoints\r\n    mapping(uint256 => Checkpoint[]) private _containerToCheckpoints;\r\n\r\n    modifier containerExist(uint256 id) {\r\n        require(\r\n            id > 0 && id <= _totalContainers,\r\n            \"Container of that ID does not exist!\"\r\n        );\r\n        _;\r\n    }\r\n\r\n    /// @notice Create a new Container\r\n    /// @dev Container ID starts from 1\r\n    function createContainer(\r\n        ShipmentType shipmentType,\r\n        uint8 country,\r\n        address receiver,\r\n        string memory locName\r\n    )\r\n        external\r\n        onlyOwner\r\n        returns (uint256 _containerId, ContainerStatus _status)\r\n    {\r\n        _totalContainers++;\r\n\r\n        Container storage newContainer = _container[_totalContainers];\r\n        newContainer.id = _totalContainers;\r\n        newContainer.countryDestination = country;\r\n        newContainer.destination.receiver = receiver;\r\n        newContainer.destination.location = Location(locName);\r\n        newContainer.dateCreated = block.timestamp;\r\n        newContainer.shipmentType = shipmentType;\r\n\r\n        // insert all queued Items of countryCode into this Container\r\n        _dequeueItemsToContainer(newContainer.id);\r\n\r\n        emit NewContainer(newContainer.id);\r\n\r\n        return (newContainer.id, newContainer.status);\r\n    }\r\n\r\n    /// @dev Queue Item (according to their country destination) for Container insertion\r\n    /// @param courierAddr Address of the Courier contract that the Item belongs to.\r\n    /// @param courierItemId Id of the Item inside the Courier contract.\r\n    function queueItem(\r\n        uint256 countryDest, //kenapa country destination tu uint256? COUNTRY CODE\r\n        address courierAddr,\r\n        uint256 courierItemId\r\n    ) external {\r\n        ContainerItem memory newContainerItem = ContainerItem(\r\n            courierAddr,\r\n            courierItemId,\r\n            block.timestamp\r\n        );\r\n\r\n        _countryToItemQueues[countryDest].push(newContainerItem);\r\n    }\r\n\r\n    function addContainerCheckpoint(\r\n        uint256 containerId,\r\n        string memory status,\r\n        string memory desc,\r\n        address operator,\r\n        string memory locName\r\n    ) public containerExist(containerId) returns (bool) {\r\n        Location memory loc = Location(locName);\r\n        Checkpoint memory newCheckpoint = Checkpoint(\r\n            status,\r\n            desc,\r\n            operator,\r\n            loc,\r\n            block.timestamp\r\n        );\r\n\r\n        _containerToCheckpoints[containerId].push(newCheckpoint);\r\n\r\n        return true;\r\n    }\r\n\r\n    function initContainerShipment(\r\n        uint256 containerId,\r\n        string memory checkpointStatus,\r\n        string memory checkpointDesc,\r\n        string memory checkpointLocName\r\n    )\r\n        external\r\n        containerExist(containerId)\r\n        onlyOwner\r\n        returns (uint256 _containerId, ContainerStatus _status)\r\n    {\r\n        Container storage container = _container[containerId];\r\n\r\n        require(\r\n            container.status == ContainerStatus.Processing,\r\n            \"This container has already been shipped!\"\r\n        );\r\n\r\n        addContainerCheckpoint(\r\n            containerId,\r\n            checkpointStatus,\r\n            checkpointDesc,\r\n            address(this),\r\n            checkpointLocName\r\n        );\r\n\r\n        _updateContainerStatus(container.id, ContainerStatus.Ongoing);\r\n\r\n        emit ContainerShipped(container.id);\r\n\r\n        return (container.id, container.status);\r\n    }\r\n\r\n    function completeContainerShipment(\r\n        uint256 containerId,\r\n        string memory checkpointStatus,\r\n        string memory checkpointDesc,\r\n        string memory checkpointLocName\r\n    )\r\n        external\r\n        containerExist(containerId)\r\n        returns (uint256 _containerId, ContainerStatus _status)\r\n    {\r\n        Container storage container = _container[containerId];\r\n\r\n        require(\r\n            msg.sender == container.destination.receiver,\r\n            \"Only the receiver of this container can complete the shipment!\"\r\n        );\r\n        require(\r\n            container.status != ContainerStatus.Completed,\r\n            \"The shipment of this container is already completed!\"\r\n        );\r\n\r\n        addContainerCheckpoint(\r\n            containerId,\r\n            checkpointStatus,\r\n            checkpointDesc,\r\n            msg.sender,\r\n            checkpointLocName\r\n        );\r\n\r\n        _updateContainerStatus(container.id, ContainerStatus.Completed);\r\n\r\n        emit ContainerDelivered(container.id);\r\n\r\n        return (container.id, container.status);\r\n    }\r\n\r\n    function setContainerAsMissing(uint256 containerId)\r\n        external\r\n        containerExist(containerId)\r\n        onlyOwner\r\n        returns (uint256 _containerId, ContainerStatus _status)\r\n    {\r\n        Container storage container = _container[containerId];\r\n\r\n        require(\r\n            container.status != ContainerStatus.Completed,\r\n            \"The shipment of this container is already completed!\"\r\n        );\r\n\r\n        _updateContainerStatus(container.id, ContainerStatus.LostInTransit);\r\n\r\n        return (container.id, container.status);\r\n    }\r\n\r\n    //////////////////\r\n    ///   Getter   ///\r\n    //////////////////\r\n\r\n    function getTotalContainers() external view returns (uint256) {\r\n        return _totalContainers;\r\n    }\r\n\r\n    function getContainerOf(uint256 containerId)\r\n        external\r\n        view\r\n        containerExist(containerId)\r\n        returns (Container memory)\r\n    {\r\n        return _container[containerId];\r\n    }\r\n\r\n    function getStatusOf(uint256 containerId)\r\n        public\r\n        view\r\n        containerExist(containerId)\r\n        returns (ContainerStatus)\r\n    {\r\n        return _container[containerId].status;\r\n    }\r\n\r\n    function getItemsOf(uint256 containerId)\r\n        external\r\n        view\r\n        containerExist(containerId)\r\n        returns (ContainerItem[] memory)\r\n    {\r\n        return _containerToItems[containerId];\r\n    }\r\n\r\n    function getReceiverOf(uint256 containerId)\r\n        external\r\n        view\r\n        containerExist(containerId)\r\n        returns (address)\r\n    {\r\n        return _container[containerId].destination.receiver;\r\n    }\r\n\r\n    function getCheckpointsOf(uint256 containerId)\r\n        external\r\n        view\r\n        containerExist(containerId)\r\n        returns (Checkpoint[] memory)\r\n    {\r\n        return _containerToCheckpoints[containerId];\r\n    }\r\n\r\n    ///////////////////\r\n    ///   Utility   ///\r\n    ///////////////////\r\n\r\n    function _updateContainerStatus(\r\n        uint256 containerId,\r\n        ContainerStatus newStatus\r\n    ) private containerExist(containerId) {\r\n        Container storage container = _container[containerId];\r\n        container.status = newStatus;\r\n    }\r\n\r\n    function _dequeueItemsToContainer(uint256 containerId) private {\r\n        uint8 countryCode = _container[containerId].countryDestination;\r\n\r\n        ContainerItem[] storage qItems = _countryToItemQueues[countryCode];\r\n\r\n        // insert all queued Items of countryCode into this Container\r\n        for (uint256 i = 0; i < qItems.length; i++) {\r\n            _containerToItems[containerId].push(qItems[i]);\r\n        }\r\n\r\n        // clear queue\r\n        delete _countryToItemQueues[countryCode];\r\n    }\r\n}\r\n",
  "sourcePath": "C:\\Users\\ujaia\\Desktop\\file ujai ammar\\logistic-dapp\\contracts\\ContainerCompany.sol",
  "compiler": {
    "name": "solc",
    "version": "0.8.2+commit.661d1103.Emscripten.clang"
  },
  "schemaVersion": "3.4.4",
  "updatedAt": "2022-01-24T12:24:11.819Z",
  "networkType": "ethereum",
  "devdoc": {
    "kind": "dev",
    "methods": {
      "createContainer(uint8,uint8,address,string)": {
        "details": "Container ID starts from 1"
      },
      "owner()": {
        "details": "Returns the address of the current owner."
      },
      "queueItem(uint256,address,uint256)": {
        "details": "Queue Item (according to their country destination) for Container insertion",
        "params": {
          "courierAddr": "Address of the Courier contract that the Item belongs to.",
          "courierItemId": "Id of the Item inside the Courier contract."
        }
      },
      "renounceOwnership()": {
        "details": "Leaves the contract without owner. It will not be possible to call `onlyOwner` functions anymore. Can only be called by the current owner. NOTE: Renouncing ownership will leave the contract without an owner, thereby removing any functionality that is only available to the owner."
      },
      "transferOwnership(address)": {
        "details": "Transfers ownership of the contract to a new account (`newOwner`). Can only be called by the current owner."
      }
    },
    "stateVariables": {
      "_container": {
        "details": "Container ID >= 1"
      },
      "_containerToCheckpoints": {
        "details": "Container checkpoints"
      },
      "_containerToItems": {
        "details": "List of items inserted into a container"
      },
      "_countryToItemQueues": {
        "details": "List of Item which are yet to be inserted into a Container, according to their country codeAll Item object forwarded to this contract will be inserted here."
      }
    },
    "version": 1
  },
  "userdoc": {
    "kind": "user",
    "methods": {
      "createContainer(uint8,uint8,address,string)": {
        "notice": "Create a new Container"
      },
      "getTotalContainers()": {
        "notice": "Getter   ///"
      }
    },
    "version": 1
  }
}