{
  "contractName": "CourierCompany",
  "abi": [
    {
      "anonymous": false,
      "inputs": [
        {
          "indexed": false,
          "internalType": "uint256",
          "name": "itemId",
          "type": "uint256"
        }
      ],
      "name": "ItemDelivered",
      "type": "event"
    },
    {
      "anonymous": false,
      "inputs": [
        {
          "indexed": false,
          "internalType": "uint256",
          "name": "itemId",
          "type": "uint256"
        }
      ],
      "name": "ItemShipped",
      "type": "event"
    },
    {
      "anonymous": false,
      "inputs": [
        {
          "indexed": false,
          "internalType": "uint256",
          "name": "itemId",
          "type": "uint256"
        }
      ],
      "name": "NewItem",
      "type": "event"
    },
    {
      "inputs": [
        {
          "internalType": "uint256",
          "name": "",
          "type": "uint256"
        }
      ],
      "name": "_item",
      "outputs": [
        {
          "internalType": "uint256",
          "name": "id",
          "type": "uint256"
        },
        {
          "internalType": "enum CourierFactory.ShipmentType",
          "name": "shipmentType",
          "type": "uint8"
        },
        {
          "internalType": "uint8",
          "name": "countryDestination",
          "type": "uint8"
        },
        {
          "components": [
            {
              "internalType": "address",
              "name": "receiver",
              "type": "address"
            },
            {
              "components": [
                {
                  "internalType": "string",
                  "name": "name",
                  "type": "string"
                }
              ],
              "internalType": "struct CourierFactory.Location",
              "name": "location",
              "type": "tuple"
            }
          ],
          "internalType": "struct CourierFactory.Destination",
          "name": "destination",
          "type": "tuple"
        },
        {
          "internalType": "enum CourierFactory.ItemStatus",
          "name": "status",
          "type": "uint8"
        },
        {
          "internalType": "address",
          "name": "forwardedTo",
          "type": "address"
        },
        {
          "internalType": "uint256",
          "name": "dateCreated",
          "type": "uint256"
        },
        {
          "internalType": "uint256",
          "name": "dateCompleted",
          "type": "uint256"
        },
        {
          "internalType": "address payable",
          "name": "payee",
          "type": "address"
        },
        {
          "internalType": "uint256",
          "name": "price",
          "type": "uint256"
        }
      ],
      "stateMutability": "view",
      "type": "function",
      "constant": true
    },
    {
      "stateMutability": "payable",
      "type": "receive",
      "payable": true
    },
    {
      "inputs": [
        {
          "internalType": "enum CourierFactory.ShipmentType",
          "name": "shipmentType",
          "type": "uint8"
        },
        {
          "internalType": "uint8",
          "name": "country",
          "type": "uint8"
        },
        {
          "internalType": "address",
          "name": "receiver",
          "type": "address"
        },
        {
          "internalType": "string",
          "name": "locName",
          "type": "string"
        },
        {
          "internalType": "address",
          "name": "payee",
          "type": "address"
        },
        {
          "internalType": "uint256",
          "name": "price",
          "type": "uint256"
        }
      ],
      "name": "createItem",
      "outputs": [
        {
          "internalType": "uint256",
          "name": "_itemId",
          "type": "uint256"
        }
      ],
      "stateMutability": "nonpayable",
      "type": "function"
    },
    {
      "inputs": [
        {
          "internalType": "uint256",
          "name": "itemId",
          "type": "uint256"
        },
        {
          "internalType": "string",
          "name": "status",
          "type": "string"
        },
        {
          "internalType": "string",
          "name": "desc",
          "type": "string"
        },
        {
          "internalType": "address",
          "name": "operator",
          "type": "address"
        },
        {
          "internalType": "string",
          "name": "locName",
          "type": "string"
        }
      ],
      "name": "addItemCheckpoint",
      "outputs": [],
      "stateMutability": "nonpayable",
      "type": "function"
    },
    {
      "inputs": [
        {
          "internalType": "uint256",
          "name": "itemId",
          "type": "uint256"
        },
        {
          "internalType": "string",
          "name": "status",
          "type": "string"
        },
        {
          "internalType": "string",
          "name": "desc",
          "type": "string"
        },
        {
          "internalType": "string",
          "name": "locName",
          "type": "string"
        }
      ],
      "name": "initItemShipment",
      "outputs": [
        {
          "internalType": "uint256",
          "name": "_itemId",
          "type": "uint256"
        },
        {
          "internalType": "enum CourierFactory.ItemStatus",
          "name": "_itemstatus",
          "type": "uint8"
        }
      ],
      "stateMutability": "nonpayable",
      "type": "function"
    },
    {
      "inputs": [
        {
          "internalType": "uint256",
          "name": "itemId",
          "type": "uint256"
        },
        {
          "internalType": "string",
          "name": "status",
          "type": "string"
        },
        {
          "internalType": "string",
          "name": "desc",
          "type": "string"
        },
        {
          "internalType": "string",
          "name": "locName",
          "type": "string"
        }
      ],
      "name": "completeItemShipment",
      "outputs": [
        {
          "internalType": "uint256",
          "name": "_itemId",
          "type": "uint256"
        },
        {
          "internalType": "enum CourierFactory.ItemStatus",
          "name": "_itemstatus",
          "type": "uint8"
        }
      ],
      "stateMutability": "payable",
      "type": "function",
      "payable": true
    },
    {
      "inputs": [
        {
          "internalType": "uint256",
          "name": "itemId",
          "type": "uint256"
        }
      ],
      "name": "setItemAsMissing",
      "outputs": [
        {
          "internalType": "uint256",
          "name": "_itemId",
          "type": "uint256"
        },
        {
          "internalType": "enum CourierFactory.ItemStatus",
          "name": "_itemstatus",
          "type": "uint8"
        }
      ],
      "stateMutability": "nonpayable",
      "type": "function"
    },
    {
      "inputs": [
        {
          "internalType": "address",
          "name": "containerAddress",
          "type": "address"
        },
        {
          "internalType": "uint256",
          "name": "itemId",
          "type": "uint256"
        },
        {
          "internalType": "uint256",
          "name": "countryCode",
          "type": "uint256"
        },
        {
          "internalType": "string",
          "name": "status",
          "type": "string"
        },
        {
          "internalType": "string",
          "name": "desc",
          "type": "string"
        },
        {
          "internalType": "string",
          "name": "locName",
          "type": "string"
        }
      ],
      "name": "forwardItemToContainer",
      "outputs": [
        {
          "internalType": "uint256",
          "name": "_itemId",
          "type": "uint256"
        },
        {
          "internalType": "enum CourierFactory.ItemStatus",
          "name": "_itemStatus",
          "type": "uint8"
        },
        {
          "internalType": "address",
          "name": "_containerAddress",
          "type": "address"
        }
      ],
      "stateMutability": "nonpayable",
      "type": "function"
    },
    {
      "inputs": [
        {
          "internalType": "uint256",
          "name": "itemId",
          "type": "uint256"
        }
      ],
      "name": "getCheckpointsOf",
      "outputs": [
        {
          "components": [
            {
              "internalType": "string",
              "name": "status",
              "type": "string"
            },
            {
              "internalType": "string",
              "name": "desc",
              "type": "string"
            },
            {
              "internalType": "address",
              "name": "operator",
              "type": "address"
            },
            {
              "components": [
                {
                  "internalType": "string",
                  "name": "name",
                  "type": "string"
                }
              ],
              "internalType": "struct CourierFactory.Location",
              "name": "location",
              "type": "tuple"
            },
            {
              "internalType": "uint256",
              "name": "timestamp",
              "type": "uint256"
            }
          ],
          "internalType": "struct CourierFactory.Checkpoint[]",
          "name": "",
          "type": "tuple[]"
        }
      ],
      "stateMutability": "view",
      "type": "function",
      "constant": true
    },
    {
      "inputs": [
        {
          "internalType": "uint256",
          "name": "itemId",
          "type": "uint256"
        }
      ],
      "name": "getItemOf",
      "outputs": [
        {
          "components": [
            {
              "internalType": "uint256",
              "name": "id",
              "type": "uint256"
            },
            {
              "internalType": "enum CourierFactory.ShipmentType",
              "name": "shipmentType",
              "type": "uint8"
            },
            {
              "internalType": "uint8",
              "name": "countryDestination",
              "type": "uint8"
            },
            {
              "components": [
                {
                  "internalType": "address",
                  "name": "receiver",
                  "type": "address"
                },
                {
                  "components": [
                    {
                      "internalType": "string",
                      "name": "name",
                      "type": "string"
                    }
                  ],
                  "internalType": "struct CourierFactory.Location",
                  "name": "location",
                  "type": "tuple"
                }
              ],
              "internalType": "struct CourierFactory.Destination",
              "name": "destination",
              "type": "tuple"
            },
            {
              "internalType": "enum CourierFactory.ItemStatus",
              "name": "status",
              "type": "uint8"
            },
            {
              "internalType": "address",
              "name": "forwardedTo",
              "type": "address"
            },
            {
              "internalType": "uint256",
              "name": "dateCreated",
              "type": "uint256"
            },
            {
              "internalType": "uint256",
              "name": "dateCompleted",
              "type": "uint256"
            },
            {
              "internalType": "address payable",
              "name": "payee",
              "type": "address"
            },
            {
              "internalType": "uint256",
              "name": "price",
              "type": "uint256"
            }
          ],
          "internalType": "struct CourierFactory.Item",
          "name": "",
          "type": "tuple"
        }
      ],
      "stateMutability": "view",
      "type": "function",
      "constant": true
    },
    {
      "inputs": [
        {
          "internalType": "uint256",
          "name": "itemId",
          "type": "uint256"
        }
      ],
      "name": "getStatusOf",
      "outputs": [
        {
          "internalType": "enum CourierFactory.ItemStatus",
          "name": "",
          "type": "uint8"
        }
      ],
      "stateMutability": "view",
      "type": "function",
      "constant": true
    },
    {
      "inputs": [],
      "name": "getTotalItems",
      "outputs": [
        {
          "internalType": "uint256",
          "name": "",
          "type": "uint256"
        }
      ],
      "stateMutability": "view",
      "type": "function",
      "constant": true
    }
  ],
  "bytecode": "0x60806040526000805534801561001457600080fd5b50612983806100246000396000f3fe6080604052600436106100a05760003560e01c806352bed3c41161006457806352bed3c4146101d5578063a68488bc14610213578063aecfaa9c14610250578063d884ea731461028f578063e215205f146102b8578063e42ea9d9146102f5576100a7565b806302be81e7146100ac578063310aac69146100e95780633d5ad38d14610114578063466c49fe146101515780634af16a2b1461018f576100a7565b366100a757005b600080fd5b3480156100b857600080fd5b506100d360048036038101906100ce9190611c8d565b610326565b6040516100e09190612247565b60405180910390f35b3480156100f557600080fd5b506100fe610615565b60405161010b9190612346565b60405180910390f35b34801561012057600080fd5b5061013b60048036038101906101369190611c8d565b61061e565b6040516101489190612324565b60405180910390f35b34801561015d57600080fd5b5061017860048036038101906101739190611c8d565b6109ae565b604051610186929190612398565b60405180910390f35b34801561019b57600080fd5b506101b660048036038101906101b19190611c8d565b610a3d565b6040516101cc9a999897969594939291906123f8565b60405180910390f35b3480156101e157600080fd5b506101fc60048036038101906101f79190611d75565b610bfe565b60405161020a929190612398565b60405180910390f35b34801561021f57600080fd5b5061023a60048036038101906102359190611c8d565b610e83565b6040516102479190612269565b60405180910390f35b34801561025c57600080fd5b5061027760048036038101906102729190611b1b565b610f03565b604051610286939291906123c1565b60405180910390f35b34801561029b57600080fd5b506102b660048036038101906102b19190611cb6565b611033565b005b3480156102c457600080fd5b506102df60048036038101906102da9190611bec565b6112ac565b6040516102ec9190612346565b60405180910390f35b61030f600480360381019061030a9190611d75565b611475565b60405161031d929190612398565b60405180910390f35b60608160008111801561033b57506000548111155b61037a576040517f08c379a0000000000000000000000000000000000000000000000000000000008152600401610371906122e4565b60405180910390fd5b60026000848152602001908152602001600020805480602002602001604051908101604052809291908181526020016000905b8282101561060957838290600052602060002090600502016040518060a00160405290816000820180546103e09061263e565b80601f016020809104026020016040519081016040528092919081815260200182805461040c9061263e565b80156104595780601f1061042e57610100808354040283529160200191610459565b820191906000526020600020905b81548152906001019060200180831161043c57829003601f168201915b505050505081526020016001820180546104729061263e565b80601f016020809104026020016040519081016040528092919081815260200182805461049e9061263e565b80156104eb5780601f106104c0576101008083540402835291602001916104eb565b820191906000526020600020905b8154815290600101906020018083116104ce57829003601f168201915b505050505081526020016002820160009054906101000a900473ffffffffffffffffffffffffffffffffffffffff1673ffffffffffffffffffffffffffffffffffffffff1673ffffffffffffffffffffffffffffffffffffffff1681526020016003820160405180602001604052908160008201805461056a9061263e565b80601f01602080910402602001604051908101604052809291908181526020018280546105969061263e565b80156105e35780601f106105b8576101008083540402835291602001916105e3565b820191906000526020600020905b8154815290600101906020018083116105c657829003601f168201915b5050505050815250508152602001600482015481525050815260200190600101906103ad565b50505050915050919050565b60008054905090565b61062661187b565b8160008111801561063957506000548111155b610678576040517f08c379a000000000000000000000000000000000000000000000000000000000815260040161066f906122e4565b60405180910390fd5b6001600084815260200190815260200160002060405180610140016040529081600082015481526020016001820160009054906101000a900460ff1660018111156106ec577f4e487b7100000000000000000000000000000000000000000000000000000000600052602160045260246000fd5b6001811115610724577f4e487b7100000000000000000000000000000000000000000000000000000000600052602160045260246000fd5b81526020016001820160019054906101000a900460ff1660ff1660ff168152602001600282016040518060400160405290816000820160009054906101000a900473ffffffffffffffffffffffffffffffffffffffff1673ffffffffffffffffffffffffffffffffffffffff1673ffffffffffffffffffffffffffffffffffffffff168152602001600182016040518060200160405290816000820180546107cb9061263e565b80601f01602080910402602001604051908101604052809291908181526020018280546107f79061263e565b80156108445780601f1061081957610100808354040283529160200191610844565b820191906000526020600020905b81548152906001019060200180831161082757829003601f168201915b5050505050815250508152505081526020016004820160009054906101000a900460ff1660038111156108a0577f4e487b7100000000000000000000000000000000000000000000000000000000600052602160045260246000fd5b60038111156108d8577f4e487b7100000000000000000000000000000000000000000000000000000000600052602160045260246000fd5b81526020016004820160019054906101000a900473ffffffffffffffffffffffffffffffffffffffff1673ffffffffffffffffffffffffffffffffffffffff1673ffffffffffffffffffffffffffffffffffffffff16815260200160058201548152602001600682015481526020016007820160009054906101000a900473ffffffffffffffffffffffffffffffffffffffff1673ffffffffffffffffffffffffffffffffffffffff1673ffffffffffffffffffffffffffffffffffffffff168152602001600882015481525050915050919050565b600080826000811180156109c457506000548111155b610a03576040517f08c379a00000000000000000000000000000000000000000000000000000000081526004016109fa906122e4565b60405180910390fd5b610a0e8460036117c0565b836001600086815260200190815260200160002060040160009054906101000a900460ff169250925050915091565b60016020528060005260406000206000915090508060000154908060010160009054906101000a900460ff16908060010160019054906101000a900460ff1690806002016040518060400160405290816000820160009054906101000a900473ffffffffffffffffffffffffffffffffffffffff1673ffffffffffffffffffffffffffffffffffffffff1673ffffffffffffffffffffffffffffffffffffffff16815260200160018201604051806020016040529081600082018054610b029061263e565b80601f0160208091040260200160405190810160405280929190818152602001828054610b2e9061263e565b8015610b7b5780601f10610b5057610100808354040283529160200191610b7b565b820191906000526020600020905b815481529060010190602001808311610b5e57829003601f168201915b50505050508152505081525050908060040160009054906101000a900460ff16908060040160019054906101000a900473ffffffffffffffffffffffffffffffffffffffff16908060050154908060060154908060070160009054906101000a900473ffffffffffffffffffffffffffffffffffffffff1690806008015490508a565b60008085600081118015610c1457506000548111155b610c53576040517f08c379a0000000000000000000000000000000000000000000000000000000008152600401610c4a906122e4565b60405180910390fd5b60016003811115610c8d577f4e487b7100000000000000000000000000000000000000000000000000000000600052602160045260246000fd5b6001600089815260200190815260200160002060040160009054906101000a900460ff166003811115610ce9577f4e487b7100000000000000000000000000000000000000000000000000000000600052602160045260246000fd5b1415610d2a576040517f08c379a0000000000000000000000000000000000000000000000000000000008152600401610d2190612304565b60405180910390fd5b60026003811115610d64577f4e487b7100000000000000000000000000000000000000000000000000000000600052602160045260246000fd5b6001600089815260200190815260200160002060040160009054906101000a900460ff166003811115610dc0577f4e487b7100000000000000000000000000000000000000000000000000000000600052602160045260246000fd5b1415610e01576040517f08c379a0000000000000000000000000000000000000000000000000000000008152600401610df8906122a4565b60405180910390fd5b610e0e8787873088611033565b7fa05c5fef40b703b14a2e3737559bc365ed9169787e68b584f4966911a890d4e287604051610e3d9190612346565b60405180910390a1610e508760016117c0565b866001600089815260200190815260200160002060040160009054906101000a900460ff16925092505094509492505050565b600081600081118015610e9857506000548111155b610ed7576040517f08c379a0000000000000000000000000000000000000000000000000000000008152600401610ece906122e4565b60405180910390fd5b6001600084815260200190815260200160002060040160009054906101000a900460ff16915050919050565b6000806000808990508073ffffffffffffffffffffffffffffffffffffffff16639235b67089308c6040518463ffffffff1660e01b8152600401610f4993929190612361565b600060405180830381600087803b158015610f6357600080fd5b505af1158015610f77573d6000803e3d6000fd5b505050506000600160008b815260200190815260200160002090508a8160040160016101000a81548173ffffffffffffffffffffffffffffffffffffffff021916908373ffffffffffffffffffffffffffffffffffffffff160217905550610fe18a898989610bfe565b505080600001548160040160009054906101000a900460ff168260040160019054906101000a900473ffffffffffffffffffffffffffffffffffffffff16945094509450505096509650969350505050565b8460008111801561104657506000548111155b611085576040517f08c379a000000000000000000000000000000000000000000000000000000000815260040161107c906122e4565b60405180910390fd5b600260038111156110bf577f4e487b7100000000000000000000000000000000000000000000000000000000600052602160045260246000fd5b6001600088815260200190815260200160002060040160009054906101000a900460ff16600381111561111b577f4e487b7100000000000000000000000000000000000000000000000000000000600052602160045260246000fd5b141561115c576040517f08c379a0000000000000000000000000000000000000000000000000000000008152600401611153906122a4565b60405180910390fd5b6000604051806020016040528084815250905060006040518060a001604052808881526020018781526020018673ffffffffffffffffffffffffffffffffffffffff168152602001838152602001428152509050600260008981526020019081526020016000208190806001815401808255809150506001900390600052602060002090600502016000909190919091506000820151816000019080519060200190611209929190611973565b506020820151816001019080519060200190611226929190611973565b5060408201518160020160006101000a81548173ffffffffffffffffffffffffffffffffffffffff021916908373ffffffffffffffffffffffffffffffffffffffff1602179055506060820151816003016000820151816000019080519060200190611293929190611973565b5050506080820151816004015550505050505050505050565b60008060008154809291906112c0906126a1565b91905055506000600160008054815260200190815260200160002090506000548160000181905550868160010160016101000a81548160ff021916908360ff160217905550858160020160000160006101000a81548173ffffffffffffffffffffffffffffffffffffffff021916908373ffffffffffffffffffffffffffffffffffffffff16021790555060405180602001604052808681525081600201600101600082015181600001908051906020019061137d929190611973565b50905050428160050181905550878160010160006101000a81548160ff021916908360018111156113d7577f4e487b7100000000000000000000000000000000000000000000000000000000600052602160045260246000fd5b0217905550838160070160006101000a81548173ffffffffffffffffffffffffffffffffffffffff021916908373ffffffffffffffffffffffffffffffffffffffff1602179055508281600801819055507f50bfe36855967d446b8ea65825360cacc53d0ec60543567ebfad26a51a2cfc46816000015460405161145b9190612346565b60405180910390a180600001549150509695505050505050565b6000808560008111801561148b57506000548111155b6114ca576040517f08c379a00000000000000000000000000000000000000000000000000000000081526004016114c1906122e4565b60405180910390fd5b60026003811115611504577f4e487b7100000000000000000000000000000000000000000000000000000000600052602160045260246000fd5b6001600089815260200190815260200160002060040160009054906101000a900460ff166003811115611560577f4e487b7100000000000000000000000000000000000000000000000000000000600052602160045260246000fd5b14156115a1576040517f08c379a0000000000000000000000000000000000000000000000000000000008152600401611598906122a4565b60405180910390fd5b6001600088815260200190815260200160002060020160000160009054906101000a900473ffffffffffffffffffffffffffffffffffffffff1673ffffffffffffffffffffffffffffffffffffffff163373ffffffffffffffffffffffffffffffffffffffff1614611648576040517f08c379a000000000000000000000000000000000000000000000000000000000815260040161163f90612284565b60405180910390fd5b600160008881526020019081526020016000206008015434146116a0576040517f08c379a0000000000000000000000000000000000000000000000000000000008152600401611697906122c4565b60405180910390fd5b4260016000898152602001908152602001600020600601819055506116c88787873388611033565b60006001600085815260200190815260200160002060070160009054906101000a900473ffffffffffffffffffffffffffffffffffffffff1690508073ffffffffffffffffffffffffffffffffffffffff166108fc349081150290604051600060405180830381858888f19350505050158015611749573d6000803e3d6000fd5b506117558860026117c0565b7fd2f1cdd76b4e7bfba9c07af47c5c4f187ffbbd992b4fa1afce4df6a00a166e85886040516117849190612346565b60405180910390a187600160008a815260200190815260200160002060040160009054906101000a900460ff1693509350505094509492505050565b816000811180156117d357506000548111155b611812576040517f08c379a0000000000000000000000000000000000000000000000000000000008152600401611809906122e4565b60405180910390fd5b816001600085815260200190815260200160002060040160006101000a81548160ff02191690836003811115611871577f4e487b7100000000000000000000000000000000000000000000000000000000600052602160045260246000fd5b0217905550505050565b60405180610140016040528060008152602001600060018111156118c8577f4e487b7100000000000000000000000000000000000000000000000000000000600052602160045260246000fd5b8152602001600060ff1681526020016118df6119f9565b81526020016000600381111561191e577f4e487b7100000000000000000000000000000000000000000000000000000000600052602160045260246000fd5b8152602001600073ffffffffffffffffffffffffffffffffffffffff1681526020016000815260200160008152602001600073ffffffffffffffffffffffffffffffffffffffff168152602001600081525090565b82805461197f9061263e565b90600052602060002090601f0160209004810192826119a157600085556119e8565b82601f106119ba57805160ff19168380011785556119e8565b828001600101855582156119e8579182015b828111156119e75782518255916020019190600101906119cc565b5b5090506119f59190611a2f565b5090565b6040518060400160405280600073ffffffffffffffffffffffffffffffffffffffff168152602001611a29611a4c565b81525090565b5b80821115611a48576000816000905550600101611a30565b5090565b6040518060200160405280606081525090565b6000611a72611a6d846124c0565b61249b565b905082815260208101848484011115611a8a57600080fd5b611a958482856125fc565b509392505050565b600081359050611aac816128f8565b92915050565b600081359050611ac18161290f565b92915050565b600082601f830112611ad857600080fd5b8135611ae8848260208601611a5f565b91505092915050565b600081359050611b008161291f565b92915050565b600081359050611b1581612936565b92915050565b60008060008060008060c08789031215611b3457600080fd5b6000611b4289828a01611a9d565b9650506020611b5389828a01611af1565b9550506040611b6489828a01611af1565b945050606087013567ffffffffffffffff811115611b8157600080fd5b611b8d89828a01611ac7565b935050608087013567ffffffffffffffff811115611baa57600080fd5b611bb689828a01611ac7565b92505060a087013567ffffffffffffffff811115611bd357600080fd5b611bdf89828a01611ac7565b9150509295509295509295565b60008060008060008060c08789031215611c0557600080fd5b6000611c1389828a01611ab2565b9650506020611c2489828a01611b06565b9550506040611c3589828a01611a9d565b945050606087013567ffffffffffffffff811115611c5257600080fd5b611c5e89828a01611ac7565b9350506080611c6f89828a01611a9d565b92505060a0611c8089828a01611af1565b9150509295509295509295565b600060208284031215611c9f57600080fd5b6000611cad84828501611af1565b91505092915050565b600080600080600060a08688031215611cce57600080fd5b6000611cdc88828901611af1565b955050602086013567ffffffffffffffff811115611cf957600080fd5b611d0588828901611ac7565b945050604086013567ffffffffffffffff811115611d2257600080fd5b611d2e88828901611ac7565b9350506060611d3f88828901611a9d565b925050608086013567ffffffffffffffff811115611d5c57600080fd5b611d6888828901611ac7565b9150509295509295909350565b60008060008060808587031215611d8b57600080fd5b6000611d9987828801611af1565b945050602085013567ffffffffffffffff811115611db657600080fd5b611dc287828801611ac7565b935050604085013567ffffffffffffffff811115611ddf57600080fd5b611deb87828801611ac7565b925050606085013567ffffffffffffffff811115611e0857600080fd5b611e1487828801611ac7565b91505092959194509250565b6000611e2c8383612009565b905092915050565b611e3d81612569565b82525050565b611e4c81612569565b82525050565b611e5b81612557565b82525050565b611e6a81612557565b82525050565b6000611e7b82612501565b611e858185612524565b935083602082028501611e97856124f1565b8060005b85811015611ed35784840389528151611eb48582611e20565b9450611ebf83612517565b925060208a01995050600181019050611e9b565b50829750879550505050505092915050565b611eee816125d8565b82525050565b611efd816125d8565b82525050565b611f0c816125ea565b82525050565b611f1b816125ea565b82525050565b6000611f2c8261250c565b611f368185612535565b9350611f4681856020860161260b565b611f4f816127a6565b840191505092915050565b6000611f67601983612546565b9150611f72826127b7565b602082019050919050565b6000611f8a602583612546565b9150611f95826127e0565b604082019050919050565b6000611fad600f83612546565b9150611fb88261282f565b602082019050919050565b6000611fd0601f83612546565b9150611fdb82612858565b602082019050919050565b6000611ff3602383612546565b9150611ffe82612881565b604082019050919050565b600060a08301600083015184820360008601526120268282611f21565b915050602083015184820360208601526120408282611f21565b91505060408301516120556040860182611e52565b506060830151848203606086015261206d82826121e1565b9150506080830151612082608086018261220b565b508091505092915050565b60006040830160008301516120a56000860182611e52565b50602083015184820360208601526120bd82826121e1565b9150508091505092915050565b60006040830160008301516120e26000860182611e52565b50602083015184820360208601526120fa82826121e1565b9150508091505092915050565b600061014083016000830151612120600086018261220b565b5060208301516121336020860182611f03565b5060408301516121466040860182612229565b506060830151848203606086015261215e828261208d565b91505060808301516121736080860182611ee5565b5060a083015161218660a0860182611e52565b5060c083015161219960c086018261220b565b5060e08301516121ac60e086018261220b565b506101008301516121c1610100860182611e34565b506101208301516121d661012086018261220b565b508091505092915050565b600060208301600083015184820360008601526121fe8282611f21565b9150508091505092915050565b612214816125c1565b82525050565b612223816125c1565b82525050565b612232816125cb565b82525050565b612241816125cb565b82525050565b600060208201905081810360008301526122618184611e70565b905092915050565b600060208201905061227e6000830184611ef4565b92915050565b6000602082019050818103600083015261229d81611f5a565b9050919050565b600060208201905081810360008301526122bd81611f7d565b9050919050565b600060208201905081810360008301526122dd81611fa0565b9050919050565b600060208201905081810360008301526122fd81611fc3565b9050919050565b6000602082019050818103600083015261231d81611fe6565b9050919050565b6000602082019050818103600083015261233e8184612107565b905092915050565b600060208201905061235b600083018461221a565b92915050565b6000606082019050612376600083018661221a565b6123836020830185611e61565b612390604083018461221a565b949350505050565b60006040820190506123ad600083018561221a565b6123ba6020830184611ef4565b9392505050565b60006060820190506123d6600083018661221a565b6123e36020830185611ef4565b6123f06040830184611e61565b949350505050565b60006101408201905061240e600083018d61221a565b61241b602083018c611f12565b612428604083018b612238565b818103606083015261243a818a6120ca565b90506124496080830189611ef4565b61245660a0830188611e61565b61246360c083018761221a565b61247060e083018661221a565b61247e610100830185611e43565b61248c61012083018461221a565b9b9a5050505050505050505050565b60006124a56124b6565b90506124b18282612670565b919050565b6000604051905090565b600067ffffffffffffffff8211156124db576124da612777565b5b6124e4826127a6565b9050602081019050919050565b6000819050602082019050919050565b600081519050919050565b600081519050919050565b6000602082019050919050565b600082825260208201905092915050565b600082825260208201905092915050565b600082825260208201905092915050565b6000612562826125a1565b9050919050565b6000612574826125a1565b9050919050565b6000819050612589826128d0565b919050565b600081905061259c826128e4565b919050565b600073ffffffffffffffffffffffffffffffffffffffff82169050919050565b6000819050919050565b600060ff82169050919050565b60006125e38261257b565b9050919050565b60006125f58261258e565b9050919050565b82818337600083830152505050565b60005b8381101561262957808201518184015260208101905061260e565b83811115612638576000848401525b50505050565b6000600282049050600182168061265657607f821691505b6020821081141561266a57612669612748565b5b50919050565b612679826127a6565b810181811067ffffffffffffffff8211171561269857612697612777565b5b80604052505050565b60006126ac826125c1565b91507fffffffffffffffffffffffffffffffffffffffffffffffffffffffffffffffff8214156126df576126de6126ea565b5b600182019050919050565b7f4e487b7100000000000000000000000000000000000000000000000000000000600052601160045260246000fd5b7f4e487b7100000000000000000000000000000000000000000000000000000000600052602160045260246000fd5b7f4e487b7100000000000000000000000000000000000000000000000000000000600052602260045260246000fd5b7f4e487b7100000000000000000000000000000000000000000000000000000000600052604160045260246000fd5b6000601f19601f8301169050919050565b7f596f7520617265206e6f74207468652072656365697665722100000000000000600082015250565b7f54686973206974656d2068617320616c7265616479206265656e2064656c697660008201527f6572656421000000000000000000000000000000000000000000000000000000602082015250565b7f4e6f7420656e6f75676820776569210000000000000000000000000000000000600082015250565b7f4974656d206f66207468617420494420646f6573206e6f742065786973742100600082015250565b7f54686973206974656d2068617320616c7265616479206265656e20736869707060008201527f6564210000000000000000000000000000000000000000000000000000000000602082015250565b600481106128e1576128e0612719565b5b50565b600281106128f5576128f4612719565b5b50565b61290181612557565b811461290c57600080fd5b50565b6002811061291c57600080fd5b50565b612928816125c1565b811461293357600080fd5b50565b61293f816125cb565b811461294a57600080fd5b5056fea2646970667358221220fc7160e2bfc9aa19e7433e506ab1ca70eafa923c9fe90ce0b79f6940bfd7f81d64736f6c63430008020033",
  "immutableReferences": {},
  "source": "// SPDX-License-Identifier: MIT\r\npragma solidity >=0.7.0;\r\nimport \"./Ownable.sol\";\r\nimport \"./ContainerCompany.sol\";\r\n\r\nabstract contract CourierFactory {\r\n    event NewItem(uint256 itemId);\r\n    event ItemShipped(uint256 itemId);\r\n    event ItemDelivered(uint256 itemId);\r\n\r\n    enum ItemStatus {\r\n        Processing,\r\n        Ongoing,\r\n        Completed,\r\n        LostInTransit\r\n    }\r\n\r\n    enum ShipmentType {\r\n        Domestic,\r\n        International\r\n    }\r\n\r\n    struct Location {\r\n        string name;\r\n        // uint256 long;\r\n        // uint256 lat;\r\n    }\r\n\r\n    struct Destination {\r\n        address receiver;\r\n        Location location;\r\n    }\r\n\r\n    struct Checkpoint {\r\n        string status;\r\n        string desc;\r\n        address operator;\r\n        Location location;\r\n        uint256 timestamp;\r\n    }\r\n\r\n    struct Item {\r\n        uint256 id;\r\n        ShipmentType shipmentType;\r\n        uint8 countryDestination;\r\n        Destination destination;\r\n        ItemStatus status;\r\n        address forwardedTo;\r\n        uint256 dateCreated;\r\n        uint256 dateCompleted;\r\n        address payable payee; //seller\r\n        uint256 price;\r\n    }\r\n}\r\n\r\ncontract CourierCompany is CourierFactory {\r\n    //item count\r\n    uint256 private _totalItems = 0;\r\n\r\n    //map the Item to its ID\r\n    mapping(uint256 => Item) public _item;\r\n\r\n    //  map checkpoints to Item\r\n    mapping(uint256 => Checkpoint[]) private _itemToCheckpoints;\r\n\r\n    modifier itemExist(uint256 id) {\r\n        require(id > 0 && id <= _totalItems, \"Item of that ID does not exist!\");\r\n        _;\r\n    }\r\n\r\n    function createItem(\r\n        ShipmentType shipmentType,\r\n        uint8 country,\r\n        address receiver,\r\n        string memory locName,\r\n        address payee,\r\n        uint256 price\r\n    )\r\n        external\r\n        returns (\r\n            // uint256 long,\r\n            // uint256 lat\r\n            uint256 _itemId\r\n        )\r\n    {\r\n        // item id starts with 1\r\n        _totalItems++;\r\n\r\n        Item storage newItem = _item[_totalItems];\r\n        newItem.id = _totalItems;\r\n        newItem.countryDestination = country;\r\n        newItem.destination.receiver = receiver;\r\n        newItem.destination.location = Location(\r\n            locName /*, long, lat*/\r\n        );\r\n        newItem.dateCreated = block.timestamp;\r\n        newItem.shipmentType = shipmentType;\r\n        newItem.payee = payable(payee);\r\n        newItem.price = price;\r\n\r\n        emit NewItem(newItem.id);\r\n\r\n        return newItem.id;\r\n    }\r\n\r\n    function addItemCheckpoint(\r\n        uint256 itemId,\r\n        string memory status,\r\n        string memory desc,\r\n        address operator,\r\n        string memory locName\r\n    ) public itemExist(itemId) {\r\n        require(\r\n            _item[itemId].status != ItemStatus.Completed,\r\n            \"This item has already been delivered!\"\r\n        );\r\n\r\n        Location memory newLoc = Location(\r\n            locName\r\n            /*long, \r\n            lat*/\r\n        );\r\n        Checkpoint memory newCheckpoint = Checkpoint(\r\n            status,\r\n            desc,\r\n            operator,\r\n            newLoc,\r\n            block.timestamp\r\n        );\r\n\r\n        _itemToCheckpoints[itemId].push(newCheckpoint);\r\n    }\r\n\r\n    function initItemShipment(\r\n        uint256 itemId,\r\n        string memory status,\r\n        string memory desc,\r\n        string memory locName\r\n    )\r\n        public\r\n        itemExist(itemId)\r\n        returns (uint256 _itemId, ItemStatus _itemstatus)\r\n    {\r\n        require(\r\n            _item[itemId].status != ItemStatus.Ongoing,\r\n            \"This item has already been shipped!\"\r\n        );\r\n        require(\r\n            _item[itemId].status != ItemStatus.Completed,\r\n            \"This item has already been delivered!\"\r\n        );\r\n\r\n        // The operator of this checkpoint would be this contract\r\n        // because why would you want to let someone else initiate\r\n        // the shipment of the items?\r\n        addItemCheckpoint(\r\n            itemId,\r\n            status,\r\n            desc,\r\n            address(this),\r\n            locName\r\n            // long,\r\n            // lat\r\n        );\r\n\r\n        emit ItemShipped(itemId);\r\n\r\n        _updateItemStatus(itemId, ItemStatus.Ongoing);\r\n\r\n        return (itemId, _item[itemId].status);\r\n    }\r\n\r\n    function completeItemShipment(\r\n        uint256 itemId,\r\n        string memory status,\r\n        string memory desc,\r\n        string memory locName\r\n    )\r\n        public\r\n        payable\r\n        itemExist(itemId)\r\n        returns (uint256 _itemId, ItemStatus _itemstatus)\r\n    {\r\n        require(\r\n            _item[itemId].status != ItemStatus.Completed,\r\n            \"This item has already been delivered!\"\r\n        );\r\n        require(\r\n            msg.sender == _item[itemId].destination.receiver,\r\n            \"You are not the receiver!\"\r\n        );\r\n        require(msg.value == _item[itemId].price, \"Not enough wei!\");\r\n\r\n        _item[itemId].dateCompleted = block.timestamp;\r\n\r\n        addItemCheckpoint(\r\n            itemId,\r\n            status,\r\n            desc,\r\n            msg.sender,\r\n            locName\r\n            // _long,\r\n            // _lat\r\n        );\r\n\r\n        address payable payee = _item[_itemId].payee;\r\n        payee.transfer(msg.value);\r\n\r\n        _updateItemStatus(itemId, ItemStatus.Completed);\r\n\r\n        emit ItemDelivered(itemId);\r\n\r\n        return (itemId, _item[itemId].status);\r\n    }\r\n\r\n    function setItemAsMissing(uint256 itemId)\r\n        external\r\n        itemExist(itemId)\r\n        returns (uint256 _itemId, ItemStatus _itemstatus)\r\n    {\r\n        _updateItemStatus(itemId, ItemStatus.LostInTransit);\r\n\r\n        return (itemId, _item[itemId].status);\r\n    }\r\n\r\n    function forwardItemToContainer(\r\n        address containerAddress,\r\n        uint256 itemId,\r\n        uint256 countryCode,\r\n        string memory status,\r\n        string memory desc,\r\n        string memory locName // uint256 _long, // uint256 _lat\r\n    )\r\n        external\r\n        returns (\r\n            uint256 _itemId,\r\n            ItemStatus _itemStatus,\r\n            address _containerAddress\r\n        )\r\n    {\r\n        ContainerCompany containerContract = ContainerCompany(containerAddress);\r\n        containerContract.queueItem(countryCode, address(this), itemId);\r\n\r\n        Item storage item = _item[itemId];\r\n        item.forwardedTo = containerAddress;\r\n\r\n        initItemShipment(itemId, status, desc, locName);\r\n\r\n        return (item.id, item.status, item.forwardedTo);\r\n    }\r\n\r\n    //////////////////\r\n    ///   Getter   ///\r\n    //////////////////\r\n\r\n    function getCheckpointsOf(uint256 itemId)\r\n        external\r\n        view\r\n        itemExist(itemId)\r\n        returns (Checkpoint[] memory)\r\n    {\r\n        return _itemToCheckpoints[itemId];\r\n    }\r\n\r\n    function getItemOf(uint256 itemId)\r\n        external\r\n        view\r\n        itemExist(itemId)\r\n        returns (Item memory)\r\n    {\r\n        return _item[itemId];\r\n    }\r\n\r\n    function getStatusOf(uint256 itemId)\r\n        external\r\n        view\r\n        itemExist(itemId)\r\n        returns (ItemStatus)\r\n    {\r\n        return _item[itemId].status;\r\n    }\r\n\r\n    function getTotalItems() external view returns (uint256) {\r\n        return _totalItems;\r\n    }\r\n\r\n    ///////////////////\r\n    ///   Utility   ///\r\n    ///////////////////\r\n\r\n    function _updateItemStatus(uint256 itemId, ItemStatus newStatus)\r\n        private\r\n        itemExist(itemId)\r\n    {\r\n        _item[itemId].status = newStatus;\r\n    }\r\n\r\n    receive() external payable {}\r\n}\r\n",
  "sourcePath": "C:\\Users\\ujaia\\Desktop\\file ujai ammar\\logistic-dapp\\contracts\\CourierCompany.sol",
  "compiler": {
    "name": "solc",
    "version": "0.8.2+commit.661d1103.Emscripten.clang"
  },
  "schemaVersion": "3.4.4",
  "updatedAt": "2022-01-24T13:09:55.816Z",
  "networkType": "ethereum",
  "devdoc": {
    "kind": "dev",
    "methods": {},
    "version": 1
  },
  "userdoc": {
    "kind": "user",
    "methods": {
      "getCheckpointsOf(uint256)": {
        "notice": "Getter   ///"
      }
    },
    "version": 1
  }
}